{
  "contracts/Cross.sol": {
    "Cross": {
      "abi": [
        {
          "inputs": [
            {
              "internalType": "address",
              "name": "_wanBridge",
              "type": "address"
            }
          ],
          "stateMutability": "nonpayable",
          "type": "constructor"
        },
        {
          "inputs": [
            {
              "internalType": "address",
              "name": "token",
              "type": "address"
            }
          ],
          "name": "SafeERC20FailedOperation",
          "type": "error"
        },
        {
          "anonymous": false,
          "inputs": [
            {
              "indexed": true,
              "internalType": "bytes32",
              "name": "txHash",
              "type": "bytes32"
            },
            {
              "indexed": true,
              "internalType": "address",
              "name": "user",
              "type": "address"
            },
            {
              "indexed": true,
              "internalType": "address",
              "name": "token",
              "type": "address"
            },
            {
              "indexed": false,
              "internalType": "uint256",
              "name": "amount",
              "type": "uint256"
            },
            {
              "indexed": false,
              "internalType": "bytes",
              "name": "recipient",
              "type": "bytes"
            },
            {
              "indexed": false,
              "internalType": "uint256",
              "name": "networkFee",
              "type": "uint256"
            }
          ],
          "name": "BridgeInitiated",
          "type": "event"
        },
        {
          "inputs": [
            {
              "components": [
                {
                  "internalType": "address",
                  "name": "token",
                  "type": "address"
                },
                {
                  "internalType": "uint256",
                  "name": "amount",
                  "type": "uint256"
                },
                {
                  "internalType": "bytes32",
                  "name": "smgID",
                  "type": "bytes32"
                },
                {
                  "internalType": "uint256",
                  "name": "tokenPairID",
                  "type": "uint256"
                },
                {
                  "internalType": "enum CrossType",
                  "name": "crossType",
                  "type": "uint8"
                },
                {
                  "internalType": "bytes",
                  "name": "recipient",
                  "type": "bytes"
                },
                {
                  "internalType": "uint256",
                  "name": "networkFee",
                  "type": "uint256"
                }
              ],
              "internalType": "struct BridgeParams",
              "name": "params",
              "type": "tuple"
            }
          ],
          "name": "cross",
          "outputs": [
            {
              "internalType": "bytes32",
              "name": "txHash",
              "type": "bytes32"
            }
          ],
          "stateMutability": "payable",
          "type": "function"
        },
        {
          "inputs": [],
          "name": "wanBridge",
          "outputs": [
            {
              "internalType": "address",
              "name": "",
              "type": "address"
            }
          ],
          "stateMutability": "view",
          "type": "function"
        }
      ],
      "evm": {
        "bytecode": {
          "linkReferences": {},
          "object": "60a060405234801561001057600080fd5b50604051610acf380380610acf83398101604081905261002f916100a6565b6001600160a01b0381166100955760405162461bcd60e51b8152602060048201526024808201527f53696d706c654272696467653a20696e76616c696420627269646765206164646044820152637265737360e01b606482015260840160405180910390fd5b6001600160a01b03166080526100d6565b6000602082840312156100b857600080fd5b81516001600160a01b03811681146100cf57600080fd5b9392505050565b6080516109c361010c600039600081816066015281816102350152818161027f01528181610326015261047701526109c36000f3fe6080604052600436106100295760003560e01c80633c1f789e1461002e5780639ba46f1a14610054575b600080fd5b61004161003c36600461072f565b610095565b6040519081526020015b60405180910390f35b34801561006057600080fd5b506100887f000000000000000000000000000000000000000000000000000000000000000081565b60405161004b9190610770565b6000808260200135116101035760405162461bcd60e51b815260206004820152602b60248201527f53696d706c654272696467653a20616d6f756e74206d7573742062652067726560448201526a061746572207468616e20360ac1b60648201526084015b60405180910390fd5b8160c001353410156101665760405162461bcd60e51b815260206004820152602660248201527f53696d706c654272696467653a20696e73756666696369656e74206e6574776f604482015265726b2066656560d01b60648201526084016100fa565b600061017560a0840184610784565b9050116101c45760405162461bcd60e51b815260206004820152601f60248201527f53696d706c654272696467653a20696e76616c696420726563697069656e740060448201526064016100fa565b60006101d360208401846107d1565b6001600160a01b03161461046d576102083330602085018035906101f790876107d1565b6001600160a01b031692919061057b565b600061021a60a0840160808501610810565b600181111561022b5761022b6107fa565b0361031c576102757f00000000000000000000000000000000000000000000000000000000000000006020840180359061026590866107d1565b6001600160a01b031691906105e8565b6001600160a01b037f00000000000000000000000000000000000000000000000000000000000000001663257011b660c08401356040850135606086013560208701356102c560a0890189610784565b6040518763ffffffff1660e01b81526004016102e595949392919061085a565b6000604051808303818588803b1580156102fe57600080fd5b505af1158015610312573d6000803e3d6000fd5b50505050506103d0565b6001600160a01b037f0000000000000000000000000000000000000000000000000000000000000000166341ff1bcc60c0840135604085013560608601356020870180359060009061036e908a6107d1565b61037b60a08b018b610784565b6040518963ffffffff1660e01b815260040161039d979695949392919061088b565b6000604051808303818588803b1580156103b657600080fd5b505af11580156103ca573d6000803e3d6000fd5b50505050505b336103de60208401846107d1565b836020013542436040516020016103f99594939291906108d2565b60408051601f198184030181529190528051602091820120915061041f908301836107d1565b6001600160a01b0316338260008051602061096e833981519152602086013561044b60a0880188610784565b8860c001356040516104609493929190610908565b60405180910390a4919050565b6001600160a01b037f00000000000000000000000000000000000000000000000000000000000000001663257011b66104ae602085013560c0860135610933565b6040850135606086013560208701356104ca60a0890189610784565b6040518763ffffffff1660e01b81526004016104ea95949392919061085a565b6000604051808303818588803b15801561050357600080fd5b505af1158015610517573d6000803e3d6000fd5b50505050503360008360200135424360405160200161053a9594939291906108d2565b60408051601f19818403018152919052805160209182012091506000903390839060008051602061096e8339815191529086013561044b60a0880188610784565b6040516001600160a01b0384811660248301528381166044830152606482018390526105e29186918216906323b872dd906084015b604051602081830303815290604052915060e01b6020820180516001600160e01b038381831617835250505050610676565b50505050565b6000836001600160a01b031663095ea7b3848460405160240161060c929190610954565b604051602081830303815290604052915060e01b6020820180516001600160e01b038381831617835250505050905061064584826106de565b6105e25761067084856001600160a01b031663095ea7b38660006040516024016105b0929190610954565b6105e284825b600080602060008451602086016000885af180610699576040513d6000823e3d81fd5b50506000513d915081156106b15780600114156106be565b6001600160a01b0384163b155b156105e25783604051635274afe760e01b81526004016100fa9190610770565b6000806000806020600086516020880160008a5af192503d91506000519050828015610723575081156107145780600114610723565b6000866001600160a01b03163b115b93505050505b92915050565b60006020828403121561074157600080fd5b81356001600160401b0381111561075757600080fd5b820160e0818503121561076957600080fd5b9392505050565b6001600160a01b0391909116815260200190565b6000808335601e1984360301811261079b57600080fd5b8301803591506001600160401b038211156107b557600080fd5b6020019150368190038213156107ca57600080fd5b9250929050565b6000602082840312156107e357600080fd5b81356001600160a01b038116811461076957600080fd5b634e487b7160e01b600052602160045260246000fd5b60006020828403121561082257600080fd5b81356002811061076957600080fd5b81835281816020850137506000828201602090810191909152601f909101601f19169091010190565b858152846020820152836040820152608060608201526000610880608083018486610831565b979650505050505050565b87815286602082015285604082015284606082015260018060a01b038416608082015260c060a082015260006108c560c083018486610831565b9998505050505050505050565b6001600160601b0319606096871b811682529490951b909316601485015260288401919091526048830152606882015260880190565b848152606060208201526000610922606083018587610831565b905082604083015295945050505050565b8082018082111561072957634e487b7160e01b600052601160045260246000fd5b6001600160a01b0392909216825260208201526040019056fe3e3ed7d045a7f2e621b187ddc688b50b31b51e058ef282744ab4e9c09339692aa264697066735822122058f4ca830faa95b3a4e8dde8d757d88434607d0365dd0b0107a61921eb4b04f664736f6c63430008180033",
          "opcodes": "PUSH1 0xA0 PUSH1 0x40 MSTORE CALLVALUE DUP1 ISZERO PUSH2 0x10 JUMPI PUSH1 0x0 DUP1 REVERT JUMPDEST POP PUSH1 0x40 MLOAD PUSH2 0xACF CODESIZE SUB DUP1 PUSH2 0xACF DUP4 CODECOPY DUP2 ADD PUSH1 0x40 DUP2 SWAP1 MSTORE PUSH2 0x2F SWAP2 PUSH2 0xA6 JUMP JUMPDEST PUSH1 0x1 PUSH1 0x1 PUSH1 0xA0 SHL SUB DUP2 AND PUSH2 0x95 JUMPI PUSH1 0x40 MLOAD PUSH3 0x461BCD PUSH1 0xE5 SHL DUP2 MSTORE PUSH1 0x20 PUSH1 0x4 DUP3 ADD MSTORE PUSH1 0x24 DUP1 DUP3 ADD MSTORE PUSH32 0x53696D706C654272696467653A20696E76616C69642062726964676520616464 PUSH1 0x44 DUP3 ADD MSTORE PUSH4 0x72657373 PUSH1 0xE0 SHL PUSH1 0x64 DUP3 ADD MSTORE PUSH1 0x84 ADD PUSH1 0x40 MLOAD DUP1 SWAP2 SUB SWAP1 REVERT JUMPDEST PUSH1 0x1 PUSH1 0x1 PUSH1 0xA0 SHL SUB AND PUSH1 0x80 MSTORE PUSH2 0xD6 JUMP JUMPDEST PUSH1 0x0 PUSH1 0x20 DUP3 DUP5 SUB SLT ISZERO PUSH2 0xB8 JUMPI PUSH1 0x0 DUP1 REVERT JUMPDEST DUP2 MLOAD PUSH1 0x1 PUSH1 0x1 PUSH1 0xA0 SHL SUB DUP2 AND DUP2 EQ PUSH2 0xCF JUMPI PUSH1 0x0 DUP1 REVERT JUMPDEST SWAP4 SWAP3 POP POP POP JUMP JUMPDEST PUSH1 0x80 MLOAD PUSH2 0x9C3 PUSH2 0x10C PUSH1 0x0 CODECOPY PUSH1 0x0 DUP2 DUP2 PUSH1 0x66 ADD MSTORE DUP2 DUP2 PUSH2 0x235 ADD MSTORE DUP2 DUP2 PUSH2 0x27F ADD MSTORE DUP2 DUP2 PUSH2 0x326 ADD MSTORE PUSH2 0x477 ADD MSTORE PUSH2 0x9C3 PUSH1 0x0 RETURN INVALID PUSH1 0x80 PUSH1 0x40 MSTORE PUSH1 0x4 CALLDATASIZE LT PUSH2 0x29 JUMPI PUSH1 0x0 CALLDATALOAD PUSH1 0xE0 SHR DUP1 PUSH4 0x3C1F789E EQ PUSH2 0x2E JUMPI DUP1 PUSH4 0x9BA46F1A EQ PUSH2 0x54 JUMPI JUMPDEST PUSH1 0x0 DUP1 REVERT JUMPDEST PUSH2 0x41 PUSH2 0x3C CALLDATASIZE PUSH1 0x4 PUSH2 0x72F JUMP JUMPDEST PUSH2 0x95 JUMP JUMPDEST PUSH1 0x40 MLOAD SWAP1 DUP2 MSTORE PUSH1 0x20 ADD JUMPDEST PUSH1 0x40 MLOAD DUP1 SWAP2 SUB SWAP1 RETURN JUMPDEST CALLVALUE DUP1 ISZERO PUSH2 0x60 JUMPI PUSH1 0x0 DUP1 REVERT JUMPDEST POP PUSH2 0x88 PUSH32 0x0 DUP2 JUMP JUMPDEST PUSH1 0x40 MLOAD PUSH2 0x4B SWAP2 SWAP1 PUSH2 0x770 JUMP JUMPDEST PUSH1 0x0 DUP1 DUP3 PUSH1 0x20 ADD CALLDATALOAD GT PUSH2 0x103 JUMPI PUSH1 0x40 MLOAD PUSH3 0x461BCD PUSH1 0xE5 SHL DUP2 MSTORE PUSH1 0x20 PUSH1 0x4 DUP3 ADD MSTORE PUSH1 0x2B PUSH1 0x24 DUP3 ADD MSTORE PUSH32 0x53696D706C654272696467653A20616D6F756E74206D75737420626520677265 PUSH1 0x44 DUP3 ADD MSTORE PUSH11 0x61746572207468616E203 PUSH1 0xAC SHL PUSH1 0x64 DUP3 ADD MSTORE PUSH1 0x84 ADD JUMPDEST PUSH1 0x40 MLOAD DUP1 SWAP2 SUB SWAP1 REVERT JUMPDEST DUP2 PUSH1 0xC0 ADD CALLDATALOAD CALLVALUE LT ISZERO PUSH2 0x166 JUMPI PUSH1 0x40 MLOAD PUSH3 0x461BCD PUSH1 0xE5 SHL DUP2 MSTORE PUSH1 0x20 PUSH1 0x4 DUP3 ADD MSTORE PUSH1 0x26 PUSH1 0x24 DUP3 ADD MSTORE PUSH32 0x53696D706C654272696467653A20696E73756666696369656E74206E6574776F PUSH1 0x44 DUP3 ADD MSTORE PUSH6 0x726B20666565 PUSH1 0xD0 SHL PUSH1 0x64 DUP3 ADD MSTORE PUSH1 0x84 ADD PUSH2 0xFA JUMP JUMPDEST PUSH1 0x0 PUSH2 0x175 PUSH1 0xA0 DUP5 ADD DUP5 PUSH2 0x784 JUMP JUMPDEST SWAP1 POP GT PUSH2 0x1C4 JUMPI PUSH1 0x40 MLOAD PUSH3 0x461BCD PUSH1 0xE5 SHL DUP2 MSTORE PUSH1 0x20 PUSH1 0x4 DUP3 ADD MSTORE PUSH1 0x1F PUSH1 0x24 DUP3 ADD MSTORE PUSH32 0x53696D706C654272696467653A20696E76616C696420726563697069656E7400 PUSH1 0x44 DUP3 ADD MSTORE PUSH1 0x64 ADD PUSH2 0xFA JUMP JUMPDEST PUSH1 0x0 PUSH2 0x1D3 PUSH1 0x20 DUP5 ADD DUP5 PUSH2 0x7D1 JUMP JUMPDEST PUSH1 0x1 PUSH1 0x1 PUSH1 0xA0 SHL SUB AND EQ PUSH2 0x46D JUMPI PUSH2 0x208 CALLER ADDRESS PUSH1 0x20 DUP6 ADD DUP1 CALLDATALOAD SWAP1 PUSH2 0x1F7 SWAP1 DUP8 PUSH2 0x7D1 JUMP JUMPDEST PUSH1 0x1 PUSH1 0x1 PUSH1 0xA0 SHL SUB AND SWAP3 SWAP2 SWAP1 PUSH2 0x57B JUMP JUMPDEST PUSH1 0x0 PUSH2 0x21A PUSH1 0xA0 DUP5 ADD PUSH1 0x80 DUP6 ADD PUSH2 0x810 JUMP JUMPDEST PUSH1 0x1 DUP2 GT ISZERO PUSH2 0x22B JUMPI PUSH2 0x22B PUSH2 0x7FA JUMP JUMPDEST SUB PUSH2 0x31C JUMPI PUSH2 0x275 PUSH32 0x0 PUSH1 0x20 DUP5 ADD DUP1 CALLDATALOAD SWAP1 PUSH2 0x265 SWAP1 DUP7 PUSH2 0x7D1 JUMP JUMPDEST PUSH1 0x1 PUSH1 0x1 PUSH1 0xA0 SHL SUB AND SWAP2 SWAP1 PUSH2 0x5E8 JUMP JUMPDEST PUSH1 0x1 PUSH1 0x1 PUSH1 0xA0 SHL SUB PUSH32 0x0 AND PUSH4 0x257011B6 PUSH1 0xC0 DUP5 ADD CALLDATALOAD PUSH1 0x40 DUP6 ADD CALLDATALOAD PUSH1 0x60 DUP7 ADD CALLDATALOAD PUSH1 0x20 DUP8 ADD CALLDATALOAD PUSH2 0x2C5 PUSH1 0xA0 DUP10 ADD DUP10 PUSH2 0x784 JUMP JUMPDEST PUSH1 0x40 MLOAD DUP8 PUSH4 0xFFFFFFFF AND PUSH1 0xE0 SHL DUP2 MSTORE PUSH1 0x4 ADD PUSH2 0x2E5 SWAP6 SWAP5 SWAP4 SWAP3 SWAP2 SWAP1 PUSH2 0x85A JUMP JUMPDEST PUSH1 0x0 PUSH1 0x40 MLOAD DUP1 DUP4 SUB DUP2 DUP6 DUP9 DUP1 EXTCODESIZE ISZERO DUP1 ISZERO PUSH2 0x2FE JUMPI PUSH1 0x0 DUP1 REVERT JUMPDEST POP GAS CALL ISZERO DUP1 ISZERO PUSH2 0x312 JUMPI RETURNDATASIZE PUSH1 0x0 DUP1 RETURNDATACOPY RETURNDATASIZE PUSH1 0x0 REVERT JUMPDEST POP POP POP POP POP PUSH2 0x3D0 JUMP JUMPDEST PUSH1 0x1 PUSH1 0x1 PUSH1 0xA0 SHL SUB PUSH32 0x0 AND PUSH4 0x41FF1BCC PUSH1 0xC0 DUP5 ADD CALLDATALOAD PUSH1 0x40 DUP6 ADD CALLDATALOAD PUSH1 0x60 DUP7 ADD CALLDATALOAD PUSH1 0x20 DUP8 ADD DUP1 CALLDATALOAD SWAP1 PUSH1 0x0 SWAP1 PUSH2 0x36E SWAP1 DUP11 PUSH2 0x7D1 JUMP JUMPDEST PUSH2 0x37B PUSH1 0xA0 DUP12 ADD DUP12 PUSH2 0x784 JUMP JUMPDEST PUSH1 0x40 MLOAD DUP10 PUSH4 0xFFFFFFFF AND PUSH1 0xE0 SHL DUP2 MSTORE PUSH1 0x4 ADD PUSH2 0x39D SWAP8 SWAP7 SWAP6 SWAP5 SWAP4 SWAP3 SWAP2 SWAP1 PUSH2 0x88B JUMP JUMPDEST PUSH1 0x0 PUSH1 0x40 MLOAD DUP1 DUP4 SUB DUP2 DUP6 DUP9 DUP1 EXTCODESIZE ISZERO DUP1 ISZERO PUSH2 0x3B6 JUMPI PUSH1 0x0 DUP1 REVERT JUMPDEST POP GAS CALL ISZERO DUP1 ISZERO PUSH2 0x3CA JUMPI RETURNDATASIZE PUSH1 0x0 DUP1 RETURNDATACOPY RETURNDATASIZE PUSH1 0x0 REVERT JUMPDEST POP POP POP POP POP JUMPDEST CALLER PUSH2 0x3DE PUSH1 0x20 DUP5 ADD DUP5 PUSH2 0x7D1 JUMP JUMPDEST DUP4 PUSH1 0x20 ADD CALLDATALOAD TIMESTAMP NUMBER PUSH1 0x40 MLOAD PUSH1 0x20 ADD PUSH2 0x3F9 SWAP6 SWAP5 SWAP4 SWAP3 SWAP2 SWAP1 PUSH2 0x8D2 JUMP JUMPDEST PUSH1 0x40 DUP1 MLOAD PUSH1 0x1F NOT DUP2 DUP5 SUB ADD DUP2 MSTORE SWAP2 SWAP1 MSTORE DUP1 MLOAD PUSH1 0x20 SWAP2 DUP3 ADD KECCAK256 SWAP2 POP PUSH2 0x41F SWAP1 DUP4 ADD DUP4 PUSH2 0x7D1 JUMP JUMPDEST PUSH1 0x1 PUSH1 0x1 PUSH1 0xA0 SHL SUB AND CALLER DUP3 PUSH1 0x0 DUP1 MLOAD PUSH1 0x20 PUSH2 0x96E DUP4 CODECOPY DUP2 MLOAD SWAP2 MSTORE PUSH1 0x20 DUP7 ADD CALLDATALOAD PUSH2 0x44B PUSH1 0xA0 DUP9 ADD DUP9 PUSH2 0x784 JUMP JUMPDEST DUP9 PUSH1 0xC0 ADD CALLDATALOAD PUSH1 0x40 MLOAD PUSH2 0x460 SWAP5 SWAP4 SWAP3 SWAP2 SWAP1 PUSH2 0x908 JUMP JUMPDEST PUSH1 0x40 MLOAD DUP1 SWAP2 SUB SWAP1 LOG4 SWAP2 SWAP1 POP JUMP JUMPDEST PUSH1 0x1 PUSH1 0x1 PUSH1 0xA0 SHL SUB PUSH32 0x0 AND PUSH4 0x257011B6 PUSH2 0x4AE PUSH1 0x20 DUP6 ADD CALLDATALOAD PUSH1 0xC0 DUP7 ADD CALLDATALOAD PUSH2 0x933 JUMP JUMPDEST PUSH1 0x40 DUP6 ADD CALLDATALOAD PUSH1 0x60 DUP7 ADD CALLDATALOAD PUSH1 0x20 DUP8 ADD CALLDATALOAD PUSH2 0x4CA PUSH1 0xA0 DUP10 ADD DUP10 PUSH2 0x784 JUMP JUMPDEST PUSH1 0x40 MLOAD DUP8 PUSH4 0xFFFFFFFF AND PUSH1 0xE0 SHL DUP2 MSTORE PUSH1 0x4 ADD PUSH2 0x4EA SWAP6 SWAP5 SWAP4 SWAP3 SWAP2 SWAP1 PUSH2 0x85A JUMP JUMPDEST PUSH1 0x0 PUSH1 0x40 MLOAD DUP1 DUP4 SUB DUP2 DUP6 DUP9 DUP1 EXTCODESIZE ISZERO DUP1 ISZERO PUSH2 0x503 JUMPI PUSH1 0x0 DUP1 REVERT JUMPDEST POP GAS CALL ISZERO DUP1 ISZERO PUSH2 0x517 JUMPI RETURNDATASIZE PUSH1 0x0 DUP1 RETURNDATACOPY RETURNDATASIZE PUSH1 0x0 REVERT JUMPDEST POP POP POP POP POP CALLER PUSH1 0x0 DUP4 PUSH1 0x20 ADD CALLDATALOAD TIMESTAMP NUMBER PUSH1 0x40 MLOAD PUSH1 0x20 ADD PUSH2 0x53A SWAP6 SWAP5 SWAP4 SWAP3 SWAP2 SWAP1 PUSH2 0x8D2 JUMP JUMPDEST PUSH1 0x40 DUP1 MLOAD PUSH1 0x1F NOT DUP2 DUP5 SUB ADD DUP2 MSTORE SWAP2 SWAP1 MSTORE DUP1 MLOAD PUSH1 0x20 SWAP2 DUP3 ADD KECCAK256 SWAP2 POP PUSH1 0x0 SWAP1 CALLER SWAP1 DUP4 SWAP1 PUSH1 0x0 DUP1 MLOAD PUSH1 0x20 PUSH2 0x96E DUP4 CODECOPY DUP2 MLOAD SWAP2 MSTORE SWAP1 DUP7 ADD CALLDATALOAD PUSH2 0x44B PUSH1 0xA0 DUP9 ADD DUP9 PUSH2 0x784 JUMP JUMPDEST PUSH1 0x40 MLOAD PUSH1 0x1 PUSH1 0x1 PUSH1 0xA0 SHL SUB DUP5 DUP2 AND PUSH1 0x24 DUP4 ADD MSTORE DUP4 DUP2 AND PUSH1 0x44 DUP4 ADD MSTORE PUSH1 0x64 DUP3 ADD DUP4 SWAP1 MSTORE PUSH2 0x5E2 SWAP2 DUP7 SWAP2 DUP3 AND SWAP1 PUSH4 0x23B872DD SWAP1 PUSH1 0x84 ADD JUMPDEST PUSH1 0x40 MLOAD PUSH1 0x20 DUP2 DUP4 SUB SUB DUP2 MSTORE SWAP1 PUSH1 0x40 MSTORE SWAP2 POP PUSH1 0xE0 SHL PUSH1 0x20 DUP3 ADD DUP1 MLOAD PUSH1 0x1 PUSH1 0x1 PUSH1 0xE0 SHL SUB DUP4 DUP2 DUP4 AND OR DUP4 MSTORE POP POP POP POP PUSH2 0x676 JUMP JUMPDEST POP POP POP POP JUMP JUMPDEST PUSH1 0x0 DUP4 PUSH1 0x1 PUSH1 0x1 PUSH1 0xA0 SHL SUB AND PUSH4 0x95EA7B3 DUP5 DUP5 PUSH1 0x40 MLOAD PUSH1 0x24 ADD PUSH2 0x60C SWAP3 SWAP2 SWAP1 PUSH2 0x954 JUMP JUMPDEST PUSH1 0x40 MLOAD PUSH1 0x20 DUP2 DUP4 SUB SUB DUP2 MSTORE SWAP1 PUSH1 0x40 MSTORE SWAP2 POP PUSH1 0xE0 SHL PUSH1 0x20 DUP3 ADD DUP1 MLOAD PUSH1 0x1 PUSH1 0x1 PUSH1 0xE0 SHL SUB DUP4 DUP2 DUP4 AND OR DUP4 MSTORE POP POP POP POP SWAP1 POP PUSH2 0x645 DUP5 DUP3 PUSH2 0x6DE JUMP JUMPDEST PUSH2 0x5E2 JUMPI PUSH2 0x670 DUP5 DUP6 PUSH1 0x1 PUSH1 0x1 PUSH1 0xA0 SHL SUB AND PUSH4 0x95EA7B3 DUP7 PUSH1 0x0 PUSH1 0x40 MLOAD PUSH1 0x24 ADD PUSH2 0x5B0 SWAP3 SWAP2 SWAP1 PUSH2 0x954 JUMP JUMPDEST PUSH2 0x5E2 DUP5 DUP3 JUMPDEST PUSH1 0x0 DUP1 PUSH1 0x20 PUSH1 0x0 DUP5 MLOAD PUSH1 0x20 DUP7 ADD PUSH1 0x0 DUP9 GAS CALL DUP1 PUSH2 0x699 JUMPI PUSH1 0x40 MLOAD RETURNDATASIZE PUSH1 0x0 DUP3 RETURNDATACOPY RETURNDATASIZE DUP2 REVERT JUMPDEST POP POP PUSH1 0x0 MLOAD RETURNDATASIZE SWAP2 POP DUP2 ISZERO PUSH2 0x6B1 JUMPI DUP1 PUSH1 0x1 EQ ISZERO PUSH2 0x6BE JUMP JUMPDEST PUSH1 0x1 PUSH1 0x1 PUSH1 0xA0 SHL SUB DUP5 AND EXTCODESIZE ISZERO JUMPDEST ISZERO PUSH2 0x5E2 JUMPI DUP4 PUSH1 0x40 MLOAD PUSH4 0x5274AFE7 PUSH1 0xE0 SHL DUP2 MSTORE PUSH1 0x4 ADD PUSH2 0xFA SWAP2 SWAP1 PUSH2 0x770 JUMP JUMPDEST PUSH1 0x0 DUP1 PUSH1 0x0 DUP1 PUSH1 0x20 PUSH1 0x0 DUP7 MLOAD PUSH1 0x20 DUP9 ADD PUSH1 0x0 DUP11 GAS CALL SWAP3 POP RETURNDATASIZE SWAP2 POP PUSH1 0x0 MLOAD SWAP1 POP DUP3 DUP1 ISZERO PUSH2 0x723 JUMPI POP DUP2 ISZERO PUSH2 0x714 JUMPI DUP1 PUSH1 0x1 EQ PUSH2 0x723 JUMP JUMPDEST PUSH1 0x0 DUP7 PUSH1 0x1 PUSH1 0x1 PUSH1 0xA0 SHL SUB AND EXTCODESIZE GT JUMPDEST SWAP4 POP POP POP POP JUMPDEST SWAP3 SWAP2 POP POP JUMP JUMPDEST PUSH1 0x0 PUSH1 0x20 DUP3 DUP5 SUB SLT ISZERO PUSH2 0x741 JUMPI PUSH1 0x0 DUP1 REVERT JUMPDEST DUP2 CALLDATALOAD PUSH1 0x1 PUSH1 0x1 PUSH1 0x40 SHL SUB DUP2 GT ISZERO PUSH2 0x757 JUMPI PUSH1 0x0 DUP1 REVERT JUMPDEST DUP3 ADD PUSH1 0xE0 DUP2 DUP6 SUB SLT ISZERO PUSH2 0x769 JUMPI PUSH1 0x0 DUP1 REVERT JUMPDEST SWAP4 SWAP3 POP POP POP JUMP JUMPDEST PUSH1 0x1 PUSH1 0x1 PUSH1 0xA0 SHL SUB SWAP2 SWAP1 SWAP2 AND DUP2 MSTORE PUSH1 0x20 ADD SWAP1 JUMP JUMPDEST PUSH1 0x0 DUP1 DUP4 CALLDATALOAD PUSH1 0x1E NOT DUP5 CALLDATASIZE SUB ADD DUP2 SLT PUSH2 0x79B JUMPI PUSH1 0x0 DUP1 REVERT JUMPDEST DUP4 ADD DUP1 CALLDATALOAD SWAP2 POP PUSH1 0x1 PUSH1 0x1 PUSH1 0x40 SHL SUB DUP3 GT ISZERO PUSH2 0x7B5 JUMPI PUSH1 0x0 DUP1 REVERT JUMPDEST PUSH1 0x20 ADD SWAP2 POP CALLDATASIZE DUP2 SWAP1 SUB DUP3 SGT ISZERO PUSH2 0x7CA JUMPI PUSH1 0x0 DUP1 REVERT JUMPDEST SWAP3 POP SWAP3 SWAP1 POP JUMP JUMPDEST PUSH1 0x0 PUSH1 0x20 DUP3 DUP5 SUB SLT ISZERO PUSH2 0x7E3 JUMPI PUSH1 0x0 DUP1 REVERT JUMPDEST DUP2 CALLDATALOAD PUSH1 0x1 PUSH1 0x1 PUSH1 0xA0 SHL SUB DUP2 AND DUP2 EQ PUSH2 0x769 JUMPI PUSH1 0x0 DUP1 REVERT JUMPDEST PUSH4 0x4E487B71 PUSH1 0xE0 SHL PUSH1 0x0 MSTORE PUSH1 0x21 PUSH1 0x4 MSTORE PUSH1 0x24 PUSH1 0x0 REVERT JUMPDEST PUSH1 0x0 PUSH1 0x20 DUP3 DUP5 SUB SLT ISZERO PUSH2 0x822 JUMPI PUSH1 0x0 DUP1 REVERT JUMPDEST DUP2 CALLDATALOAD PUSH1 0x2 DUP2 LT PUSH2 0x769 JUMPI PUSH1 0x0 DUP1 REVERT JUMPDEST DUP2 DUP4 MSTORE DUP2 DUP2 PUSH1 0x20 DUP6 ADD CALLDATACOPY POP PUSH1 0x0 DUP3 DUP3 ADD PUSH1 0x20 SWAP1 DUP2 ADD SWAP2 SWAP1 SWAP2 MSTORE PUSH1 0x1F SWAP1 SWAP2 ADD PUSH1 0x1F NOT AND SWAP1 SWAP2 ADD ADD SWAP1 JUMP JUMPDEST DUP6 DUP2 MSTORE DUP5 PUSH1 0x20 DUP3 ADD MSTORE DUP4 PUSH1 0x40 DUP3 ADD MSTORE PUSH1 0x80 PUSH1 0x60 DUP3 ADD MSTORE PUSH1 0x0 PUSH2 0x880 PUSH1 0x80 DUP4 ADD DUP5 DUP7 PUSH2 0x831 JUMP JUMPDEST SWAP8 SWAP7 POP POP POP POP POP POP POP JUMP JUMPDEST DUP8 DUP2 MSTORE DUP7 PUSH1 0x20 DUP3 ADD MSTORE DUP6 PUSH1 0x40 DUP3 ADD MSTORE DUP5 PUSH1 0x60 DUP3 ADD MSTORE PUSH1 0x1 DUP1 PUSH1 0xA0 SHL SUB DUP5 AND PUSH1 0x80 DUP3 ADD MSTORE PUSH1 0xC0 PUSH1 0xA0 DUP3 ADD MSTORE PUSH1 0x0 PUSH2 0x8C5 PUSH1 0xC0 DUP4 ADD DUP5 DUP7 PUSH2 0x831 JUMP JUMPDEST SWAP10 SWAP9 POP POP POP POP POP POP POP POP POP JUMP JUMPDEST PUSH1 0x1 PUSH1 0x1 PUSH1 0x60 SHL SUB NOT PUSH1 0x60 SWAP7 DUP8 SHL DUP2 AND DUP3 MSTORE SWAP5 SWAP1 SWAP6 SHL SWAP1 SWAP4 AND PUSH1 0x14 DUP6 ADD MSTORE PUSH1 0x28 DUP5 ADD SWAP2 SWAP1 SWAP2 MSTORE PUSH1 0x48 DUP4 ADD MSTORE PUSH1 0x68 DUP3 ADD MSTORE PUSH1 0x88 ADD SWAP1 JUMP JUMPDEST DUP5 DUP2 MSTORE PUSH1 0x60 PUSH1 0x20 DUP3 ADD MSTORE PUSH1 0x0 PUSH2 0x922 PUSH1 0x60 DUP4 ADD DUP6 DUP8 PUSH2 0x831 JUMP JUMPDEST SWAP1 POP DUP3 PUSH1 0x40 DUP4 ADD MSTORE SWAP6 SWAP5 POP POP POP POP POP JUMP JUMPDEST DUP1 DUP3 ADD DUP1 DUP3 GT ISZERO PUSH2 0x729 JUMPI PUSH4 0x4E487B71 PUSH1 0xE0 SHL PUSH1 0x0 MSTORE PUSH1 0x11 PUSH1 0x4 MSTORE PUSH1 0x24 PUSH1 0x0 REVERT JUMPDEST PUSH1 0x1 PUSH1 0x1 PUSH1 0xA0 SHL SUB SWAP3 SWAP1 SWAP3 AND DUP3 MSTORE PUSH1 0x20 DUP3 ADD MSTORE PUSH1 0x40 ADD SWAP1 JUMP INVALID RETURNDATACOPY RETURNDATACOPY 0xD7 0xD0 GASLIMIT 0xA7 CALLCODE 0xE6 0x21 0xB1 DUP8 0xDD 0xC6 DUP9 0xB5 SIGNEXTEND BALANCE 0xB5 0x1E SDIV DUP15 CALLCODE DUP3 PUSH21 0x4AB4E9C09339692AA264697066735822122058F4CA DUP4 0xF 0xAA SWAP6 0xB3 LOG4 0xE8 0xDD 0xE8 0xD7 JUMPI 0xD8 DUP5 CALLVALUE PUSH1 0x7D SUB PUSH6 0xDD0B0107A619 0x21 0xEB 0x4B DIV 0xF6 PUSH5 0x736F6C6343 STOP ADDMOD XOR STOP CALLER "
        },
        "methodIdentifiers": {
          "cross((address,uint256,bytes32,uint256,uint8,bytes,uint256))": "3c1f789e",
          "wanBridge()": "9ba46f1a"
        }
      }
    }
  }
}